{
  "_format": "hh-sol-artifact-1",
  "contractName": "Blog",
  "sourceName": "contracts/Blog.sol",
  "abi": [
    {
      "inputs": [
        {
          "internalType": "string",
          "name": "_name",
          "type": "string"
        }
      ],
      "stateMutability": "nonpayable",
      "type": "constructor"
    },
    {
      "anonymous": false,
      "inputs": [
        {
          "indexed": false,
          "internalType": "uint256",
          "name": "id",
          "type": "uint256"
        },
        {
          "indexed": false,
          "internalType": "string",
          "name": "title",
          "type": "string"
        },
        {
          "indexed": false,
          "internalType": "string",
          "name": "hash",
          "type": "string"
        },
        {
          "indexed": false,
          "internalType": "string",
          "name": "tags",
          "type": "string"
        }
      ],
      "name": "PostCreated",
      "type": "event"
    },
    {
      "anonymous": false,
      "inputs": [
        {
          "indexed": false,
          "internalType": "uint256",
          "name": "id",
          "type": "uint256"
        },
        {
          "indexed": false,
          "internalType": "string",
          "name": "title",
          "type": "string"
        },
        {
          "indexed": false,
          "internalType": "string",
          "name": "hash",
          "type": "string"
        },
        {
          "indexed": false,
          "internalType": "string",
          "name": "tags",
          "type": "string"
        },
        {
          "indexed": false,
          "internalType": "bool",
          "name": "published",
          "type": "bool"
        }
      ],
      "name": "PostUpdated",
      "type": "event"
    },
    {
      "inputs": [
        {
          "internalType": "string",
          "name": "title",
          "type": "string"
        },
        {
          "internalType": "string",
          "name": "hash",
          "type": "string"
        },
        {
          "internalType": "string",
          "name": "tags",
          "type": "string"
        }
      ],
      "name": "createPost",
      "outputs": [],
      "stateMutability": "nonpayable",
      "type": "function"
    },
    {
      "inputs": [
        {
          "internalType": "string",
          "name": "hash",
          "type": "string"
        }
      ],
      "name": "fetchPost",
      "outputs": [
        {
          "components": [
            {
              "internalType": "uint256",
              "name": "id",
              "type": "uint256"
            },
            {
              "internalType": "string",
              "name": "title",
              "type": "string"
            },
            {
              "internalType": "string",
              "name": "hash",
              "type": "string"
            },
            {
              "internalType": "string",
              "name": "tags",
              "type": "string"
            },
            {
              "internalType": "bool",
              "name": "published",
              "type": "bool"
            }
          ],
          "internalType": "struct Blog.Post",
          "name": "",
          "type": "tuple"
        }
      ],
      "stateMutability": "view",
      "type": "function"
    },
    {
      "inputs": [],
      "name": "fetchPosts",
      "outputs": [
        {
          "components": [
            {
              "internalType": "uint256",
              "name": "id",
              "type": "uint256"
            },
            {
              "internalType": "string",
              "name": "title",
              "type": "string"
            },
            {
              "internalType": "string",
              "name": "hash",
              "type": "string"
            },
            {
              "internalType": "string",
              "name": "tags",
              "type": "string"
            },
            {
              "internalType": "bool",
              "name": "published",
              "type": "bool"
            }
          ],
          "internalType": "struct Blog.Post[]",
          "name": "posts",
          "type": "tuple[]"
        }
      ],
      "stateMutability": "view",
      "type": "function"
    },
    {
      "inputs": [],
      "name": "fetchPostsDescending",
      "outputs": [
        {
          "components": [
            {
              "internalType": "uint256",
              "name": "id",
              "type": "uint256"
            },
            {
              "internalType": "string",
              "name": "title",
              "type": "string"
            },
            {
              "internalType": "string",
              "name": "hash",
              "type": "string"
            },
            {
              "internalType": "string",
              "name": "tags",
              "type": "string"
            },
            {
              "internalType": "bool",
              "name": "published",
              "type": "bool"
            }
          ],
          "internalType": "struct Blog.Post[]",
          "name": "posts",
          "type": "tuple[]"
        }
      ],
      "stateMutability": "view",
      "type": "function"
    },
    {
      "inputs": [],
      "name": "name",
      "outputs": [
        {
          "internalType": "string",
          "name": "",
          "type": "string"
        }
      ],
      "stateMutability": "view",
      "type": "function"
    },
    {
      "inputs": [],
      "name": "owner",
      "outputs": [
        {
          "internalType": "address",
          "name": "",
          "type": "address"
        }
      ],
      "stateMutability": "view",
      "type": "function"
    },
    {
      "inputs": [
        {
          "internalType": "address",
          "name": "newOwner",
          "type": "address"
        }
      ],
      "name": "transferOwnership",
      "outputs": [],
      "stateMutability": "nonpayable",
      "type": "function"
    },
    {
      "inputs": [
        {
          "internalType": "string",
          "name": "_name",
          "type": "string"
        }
      ],
      "name": "updateName",
      "outputs": [],
      "stateMutability": "nonpayable",
      "type": "function"
    },
    {
      "inputs": [
        {
          "internalType": "uint256",
          "name": "postId",
          "type": "uint256"
        },
        {
          "internalType": "string",
          "name": "title",
          "type": "string"
        },
        {
          "internalType": "string",
          "name": "hash",
          "type": "string"
        },
        {
          "internalType": "string",
          "name": "tags",
          "type": "string"
        },
        {
          "internalType": "bool",
          "name": "published",
          "type": "bool"
        }
      ],
      "name": "updatePost",
      "outputs": [],
      "stateMutability": "nonpayable",
      "type": "function"
    }
  ],
  "bytecode": "0x60806040523480156200001157600080fd5b5060405162002254380380620022548339818101604052810190620000379190620002d5565b620000836040518060400160405280601981526020017f4465706c6f79696e6720426c6f672077697468206e616d653a0000000000000081525082620000e460201b620010021760201c565b80600090805190602001906200009b929190620001b3565b5033600160006101000a81548173ffffffffffffffffffffffffffffffffffffffff021916908373ffffffffffffffffffffffffffffffffffffffff1602179055505062000522565b620001868282604051602401620000fd9291906200035b565b6040516020818303038152906040527f4b5c4277000000000000000000000000000000000000000000000000000000007bffffffffffffffffffffffffffffffffffffffffffffffffffffffff19166020820180517bffffffffffffffffffffffffffffffffffffffffffffffffffffffff83818316178352505050506200018a60201b60201c565b5050565b60008151905060006a636f6e736f6c652e6c6f679050602083016000808483855afa5050505050565b828054620001c19062000447565b90600052602060002090601f016020900481019282620001e5576000855562000231565b82601f106200020057805160ff191683800117855562000231565b8280016001018555821562000231579182015b828111156200023057825182559160200191906001019062000213565b5b50905062000240919062000244565b5090565b5b808211156200025f57600081600090555060010162000245565b5090565b60006200027a6200027484620003bf565b62000396565b9050828152602081018484840111156200029357600080fd5b620002a084828562000411565b509392505050565b600082601f830112620002ba57600080fd5b8151620002cc84826020860162000263565b91505092915050565b600060208284031215620002e857600080fd5b600082015167ffffffffffffffff8111156200030357600080fd5b6200031184828501620002a8565b91505092915050565b60006200032782620003f5565b62000333818562000400565b93506200034581856020860162000411565b620003508162000511565b840191505092915050565b600060408201905081810360008301526200037781856200031a565b905081810360208301526200038d81846200031a565b90509392505050565b6000620003a2620003b5565b9050620003b082826200047d565b919050565b6000604051905090565b600067ffffffffffffffff821115620003dd57620003dc620004e2565b5b620003e88262000511565b9050602081019050919050565b600081519050919050565b600082825260208201905092915050565b60005b838110156200043157808201518184015260208101905062000414565b8381111562000441576000848401525b50505050565b600060028204905060018216806200046057607f821691505b60208210811415620004775762000476620004b3565b5b50919050565b620004888262000511565b810181811067ffffffffffffffff82111715620004aa57620004a9620004e2565b5b80604052505050565b7f4e487b7100000000000000000000000000000000000000000000000000000000600052602260045260246000fd5b7f4e487b7100000000000000000000000000000000000000000000000000000000600052604160045260246000fd5b6000601f19601f8301169050919050565b611d2280620005326000396000f3fe608060405234801561001057600080fd5b50600436106100935760003560e01c80638da5cb5b116100665780638da5cb5b1461011e578063a966b2ed1461013c578063abaddd7f1461015a578063e8a4a1eb14610178578063f2fde38b1461019457610093565b806306fdde031461009857806344828659146100b65780636e450105146100e657806384da92a714610102575b600080fd5b6100a06101b0565b6040516100ad9190611806565b60405180910390f35b6100d060048036038101906100cb919061131c565b61023e565b6040516100dd919061185f565b60405180910390f35b61010060048036038101906100fb91906113f4565b610451565b005b61011c6004803603810190610117919061131c565b6106f5565b005b61012661070f565b60405161013391906117c9565b60405180910390f35b610144610735565b60405161015191906117e4565b60405180910390f35b610162610a5f565b60405161016f91906117e4565b60405180910390f35b610192600480360381019061018d919061135d565b610d60565b005b6101ae60048036038101906101a991906112f3565b610f64565b005b600080546101bd90611b5d565b80601f01602080910402602001604051908101604052809291908181526020018280546101e990611b5d565b80156102365780601f1061020b57610100808354040283529160200191610236565b820191906000526020600020905b81548152906001019060200180831161021957829003601f168201915b505050505081565b6102466110eb565b60048260405161025691906117b2565b90815260200160405180910390206040518060a00160405290816000820154815260200160018201805461028990611b5d565b80601f01602080910402602001604051908101604052809291908181526020018280546102b590611b5d565b80156103025780601f106102d757610100808354040283529160200191610302565b820191906000526020600020905b8154815290600101906020018083116102e557829003601f168201915b5050505050815260200160028201805461031b90611b5d565b80601f016020809104026020016040519081016040528092919081815260200182805461034790611b5d565b80156103945780601f1061036957610100808354040283529160200191610394565b820191906000526020600020905b81548152906001019060200180831161037757829003601f168201915b505050505081526020016003820180546103ad90611b5d565b80601f01602080910402602001604051908101604052809291908181526020018280546103d990611b5d565b80156104265780601f106103fb57610100808354040283529160200191610426565b820191906000526020600020905b81548152906001019060200180831161040957829003601f168201915b505050505081526020016004820160009054906101000a900460ff1615151515815250509050919050565b600160009054906101000a900473ffffffffffffffffffffffffffffffffffffffff1673ffffffffffffffffffffffffffffffffffffffff163373ffffffffffffffffffffffffffffffffffffffff16146104ab57600080fd5b6000600360008781526020019081526020016000209050848160010190805190602001906104da92919061111c565b50838160020190805190602001906104f392919061111c565b508281600301908051906020019061050c92919061111c565b50818160040160006101000a81548160ff021916908315150217905550806003600088815260200190815260200160002060008201548160000155600182018160010190805461055b90611b5d565b6105669291906111a2565b50600282018160020190805461057b90611b5d565b6105869291906111a2565b50600382018160030190805461059b90611b5d565b6105a69291906111a2565b506004820160009054906101000a900460ff168160040160006101000a81548160ff021916908315150217905550905050806004856040516105e891906117b2565b908152602001604051809103902060008201548160000155600182018160010190805461061490611b5d565b61061f9291906111a2565b50600282018160020190805461063490611b5d565b61063f9291906111a2565b50600382018160030190805461065490611b5d565b61065f9291906111a2565b506004820160009054906101000a900460ff168160040160006101000a81548160ff0219169083151502179055509050507fb04600e604bae19dc6106021e686e73aee172222c4443c1fb3d81c8f777b931f81600001548260010183600201846003018560040160009054906101000a900460ff166040516106e59594939291906118db565b60405180910390a1505050505050565b806000908051906020019061070b92919061111c565b5050565b600160009054906101000a900473ffffffffffffffffffffffffffffffffffffffff1681565b60606000610743600261109e565b9050600080821115610a59578167ffffffffffffffff81111561078f577f4e487b7100000000000000000000000000000000000000000000000000000000600052604160045260246000fd5b6040519080825280602002602001820160405280156107c857816020015b6107b56110eb565b8152602001906001900390816107ad5790505b50925060008290505b6000811115610a515760006001826107e99190611a1f565b90506000600360008381526020019081526020016000209050806040518060a00160405290816000820154815260200160018201805461082890611b5d565b80601f016020809104026020016040519081016040528092919081815260200182805461085490611b5d565b80156108a15780601f10610876576101008083540402835291602001916108a1565b820191906000526020600020905b81548152906001019060200180831161088457829003601f168201915b505050505081526020016002820180546108ba90611b5d565b80601f01602080910402602001604051908101604052809291908181526020018280546108e690611b5d565b80156109335780601f1061090857610100808354040283529160200191610933565b820191906000526020600020905b81548152906001019060200180831161091657829003601f168201915b5050505050815260200160038201805461094c90611b5d565b80601f016020809104026020016040519081016040528092919081815260200182805461097890611b5d565b80156109c55780601f1061099a576101008083540402835291602001916109c5565b820191906000526020600020905b8154815290600101906020018083116109a857829003601f168201915b505050505081526020016004820160009054906101000a900460ff161515151581525050868581518110610a22577f4e487b7100000000000000000000000000000000000000000000000000000000600052603260045260246000fd5b6020026020010181905250600184610a3a9190611a1f565b935050508080610a4990611b33565b9150506107d1565b505050610a5c565b50505b90565b60606000610a6d600261109e565b90508067ffffffffffffffff811115610aaf577f4e487b7100000000000000000000000000000000000000000000000000000000600052604160045260246000fd5b604051908082528060200260200182016040528015610ae857816020015b610ad56110eb565b815260200190600190039081610acd5790505b5091506000600190505b818111610d5b576000600360008381526020019081526020016000209050806040518060a001604052908160008201548152602001600182018054610b3690611b5d565b80601f0160208091040260200160405190810160405280929190818152602001828054610b6290611b5d565b8015610baf5780601f10610b8457610100808354040283529160200191610baf565b820191906000526020600020905b815481529060010190602001808311610b9257829003601f168201915b50505050508152602001600282018054610bc890611b5d565b80601f0160208091040260200160405190810160405280929190818152602001828054610bf490611b5d565b8015610c415780601f10610c1657610100808354040283529160200191610c41565b820191906000526020600020905b815481529060010190602001808311610c2457829003601f168201915b50505050508152602001600382018054610c5a90611b5d565b80601f0160208091040260200160405190810160405280929190818152602001828054610c8690611b5d565b8015610cd35780601f10610ca857610100808354040283529160200191610cd3565b820191906000526020600020905b815481529060010190602001808311610cb657829003601f168201915b505050505081526020016004820160009054906101000a900460ff16151515158152505084600184610d059190611a75565b81518110610d3c577f4e487b7100000000000000000000000000000000000000000000000000000000600052603260045260246000fd5b6020026020010181905250508080610d5390611bc0565b915050610af2565b505090565b600160009054906101000a900473ffffffffffffffffffffffffffffffffffffffff1673ffffffffffffffffffffffffffffffffffffffff163373ffffffffffffffffffffffffffffffffffffffff1614610dba57600080fd5b610dc460026110ac565b6000610dd0600261109e565b9050600060036000838152602001908152602001600020905081816000018190555084816001019080519060200190610e0a92919061111c565b5083816002019080519060200190610e2392919061111c565b5082816003019080519060200190610e3c92919061111c565b5060018160040160006101000a81548160ff02191690831515021790555080600485604051610e6b91906117b2565b9081526020016040518091039020600082015481600001556001820181600101908054610e9790611b5d565b610ea29291906111a2565b506002820181600201908054610eb790611b5d565b610ec29291906111a2565b506003820181600301908054610ed790611b5d565b610ee29291906111a2565b506004820160009054906101000a900460ff168160040160006101000a81548160ff0219169083151502179055509050507f5ba192b3d15b81676e027bd868bf729f36ddcdb425644003640136497f0989168160000154826001018360020184600301604051610f559493929190611881565b60405180910390a15050505050565b600160009054906101000a900473ffffffffffffffffffffffffffffffffffffffff1673ffffffffffffffffffffffffffffffffffffffff163373ffffffffffffffffffffffffffffffffffffffff1614610fbe57600080fd5b80600160006101000a81548173ffffffffffffffffffffffffffffffffffffffff021916908373ffffffffffffffffffffffffffffffffffffffff16021790555050565b61109a8282604051602401611018929190611828565b6040516020818303038152906040527f4b5c4277000000000000000000000000000000000000000000000000000000007bffffffffffffffffffffffffffffffffffffffffffffffffffffffff19166020820180517bffffffffffffffffffffffffffffffffffffffffffffffffffffffff83818316178352505050506110c2565b5050565b600081600001549050919050565b6001816000016000828254019250508190555050565b60008151905060006a636f6e736f6c652e6c6f679050602083016000808483855afa5050505050565b6040518060a00160405280600081526020016060815260200160608152602001606081526020016000151581525090565b82805461112890611b5d565b90600052602060002090601f01602090048101928261114a5760008555611191565b82601f1061116357805160ff1916838001178555611191565b82800160010185558215611191579182015b82811115611190578251825591602001919060010190611175565b5b50905061119e919061122f565b5090565b8280546111ae90611b5d565b90600052602060002090601f0160209004810192826111d0576000855561121e565b82601f106111e1578054855561121e565b8280016001018555821561121e57600052602060002091601f016020900482015b8281111561121d578254825591600101919060010190611202565b5b50905061122b919061122f565b5090565b5b80821115611248576000816000905550600101611230565b5090565b600061125f61125a84611968565b611943565b90508281526020810184848401111561127757600080fd5b611282848285611af1565b509392505050565b60008135905061129981611ca7565b92915050565b6000813590506112ae81611cbe565b92915050565b600082601f8301126112c557600080fd5b81356112d584826020860161124c565b91505092915050565b6000813590506112ed81611cd5565b92915050565b60006020828403121561130557600080fd5b60006113138482850161128a565b91505092915050565b60006020828403121561132e57600080fd5b600082013567ffffffffffffffff81111561134857600080fd5b611354848285016112b4565b91505092915050565b60008060006060848603121561137257600080fd5b600084013567ffffffffffffffff81111561138c57600080fd5b611398868287016112b4565b935050602084013567ffffffffffffffff8111156113b557600080fd5b6113c1868287016112b4565b925050604084013567ffffffffffffffff8111156113de57600080fd5b6113ea868287016112b4565b9150509250925092565b600080600080600060a0868803121561140c57600080fd5b600061141a888289016112de565b955050602086013567ffffffffffffffff81111561143757600080fd5b611443888289016112b4565b945050604086013567ffffffffffffffff81111561146057600080fd5b61146c888289016112b4565b935050606086013567ffffffffffffffff81111561148957600080fd5b611495888289016112b4565b92505060806114a68882890161129f565b9150509295509295909350565b60006114bf838361168c565b905092915050565b6114d081611aa9565b82525050565b60006114e1826119be565b6114eb81856119e1565b9350836020820285016114fd85611999565b8060005b85811015611539578484038952815161151a85826114b3565b9450611525836119d4565b925060208a01995050600181019050611501565b50829750879550505050505092915050565b61155481611abb565b82525050565b61156381611abb565b82525050565b6000611574826119c9565b61157e81856119f2565b935061158e818560208601611b00565b61159781611c96565b840191505092915050565b60006115ad826119c9565b6115b78185611a03565b93506115c7818560208601611b00565b6115d081611c96565b840191505092915050565b60006115e6826119c9565b6115f08185611a14565b9350611600818560208601611b00565b80840191505092915050565b6000815461161981611b5d565b6116238186611a03565b9450600182166000811461163e576001811461165057611683565b60ff1983168652602086019350611683565b611659856119a9565b60005b8381101561167b5781548189015260018201915060208101905061165c565b808801955050505b50505092915050565b600060a0830160008301516116a46000860182611794565b50602083015184820360208601526116bc8282611569565b915050604083015184820360408601526116d68282611569565b915050606083015184820360608601526116f08282611569565b9150506080830151611705608086018261154b565b508091505092915050565b600060a0830160008301516117286000860182611794565b50602083015184820360208601526117408282611569565b9150506040830151848203604086015261175a8282611569565b915050606083015184820360608601526117748282611569565b9150506080830151611789608086018261154b565b508091505092915050565b61179d81611ae7565b82525050565b6117ac81611ae7565b82525050565b60006117be82846115db565b915081905092915050565b60006020820190506117de60008301846114c7565b92915050565b600060208201905081810360008301526117fe81846114d6565b905092915050565b6000602082019050818103600083015261182081846115a2565b905092915050565b6000604082019050818103600083015261184281856115a2565b9050818103602083015261185681846115a2565b90509392505050565b600060208201905081810360008301526118798184611710565b905092915050565b600060808201905061189660008301876117a3565b81810360208301526118a8818661160c565b905081810360408301526118bc818561160c565b905081810360608301526118d0818461160c565b905095945050505050565b600060a0820190506118f060008301886117a3565b8181036020830152611902818761160c565b90508181036040830152611916818661160c565b9050818103606083015261192a818561160c565b9050611939608083018461155a565b9695505050505050565b600061194d61195e565b90506119598282611b8f565b919050565b6000604051905090565b600067ffffffffffffffff82111561198357611982611c67565b5b61198c82611c96565b9050602081019050919050565b6000819050602082019050919050565b60008190508160005260206000209050919050565b600081519050919050565b600081519050919050565b6000602082019050919050565b600082825260208201905092915050565b600082825260208201905092915050565b600082825260208201905092915050565b600081905092915050565b6000611a2a82611ae7565b9150611a3583611ae7565b9250827fffffffffffffffffffffffffffffffffffffffffffffffffffffffffffffffff03821115611a6a57611a69611c09565b5b828201905092915050565b6000611a8082611ae7565b9150611a8b83611ae7565b925082821015611a9e57611a9d611c09565b5b828203905092915050565b6000611ab482611ac7565b9050919050565b60008115159050919050565b600073ffffffffffffffffffffffffffffffffffffffff82169050919050565b6000819050919050565b82818337600083830152505050565b60005b83811015611b1e578082015181840152602081019050611b03565b83811115611b2d576000848401525b50505050565b6000611b3e82611ae7565b91506000821415611b5257611b51611c09565b5b600182039050919050565b60006002820490506001821680611b7557607f821691505b60208210811415611b8957611b88611c38565b5b50919050565b611b9882611c96565b810181811067ffffffffffffffff82111715611bb757611bb6611c67565b5b80604052505050565b6000611bcb82611ae7565b91507fffffffffffffffffffffffffffffffffffffffffffffffffffffffffffffffff821415611bfe57611bfd611c09565b5b600182019050919050565b7f4e487b7100000000000000000000000000000000000000000000000000000000600052601160045260246000fd5b7f4e487b7100000000000000000000000000000000000000000000000000000000600052602260045260246000fd5b7f4e487b7100000000000000000000000000000000000000000000000000000000600052604160045260246000fd5b6000601f19601f8301169050919050565b611cb081611aa9565b8114611cbb57600080fd5b50565b611cc781611abb565b8114611cd257600080fd5b50565b611cde81611ae7565b8114611ce957600080fd5b5056fea264697066735822122025c9377006bc641dd657d7602b4af71918bbb5f9eaa07cea88f3d05e5898417764736f6c63430008040033",
  "linkReferences": {},
  "deployedLinkReferences": {}
}